{
  "_format": "hh-sol-artifact-1",
  "contractName": "TokenStaking",
  "sourceName": "contracts/TokenStaking.sol",
  "abi": [
    {
      "inputs": [
        {
          "internalType": "address",
          "name": "_stakingToken",
          "type": "address"
        },
        {
          "internalType": "address",
          "name": "_rewardToken",
          "type": "address"
        },
        {
          "internalType": "address",
          "name": "_admin",
          "type": "address"
        }
      ],
      "stateMutability": "nonpayable",
      "type": "constructor"
    },
    {
      "anonymous": false,
      "inputs": [
        {
          "indexed": false,
          "internalType": "address",
          "name": "account",
          "type": "address"
        }
      ],
      "name": "Paused",
      "type": "event"
    },
    {
      "anonymous": false,
      "inputs": [
        {
          "indexed": true,
          "internalType": "address",
          "name": "user",
          "type": "address"
        },
        {
          "indexed": false,
          "internalType": "uint256",
          "name": "reward",
          "type": "uint256"
        }
      ],
      "name": "RewardClaimed",
      "type": "event"
    },
    {
      "anonymous": false,
      "inputs": [
        {
          "indexed": false,
          "internalType": "uint256",
          "name": "newPeriod",
          "type": "uint256"
        }
      ],
      "name": "RewardPeriodSet",
      "type": "event"
    },
    {
      "anonymous": false,
      "inputs": [
        {
          "indexed": false,
          "internalType": "uint256",
          "name": "reward",
          "type": "uint256"
        }
      ],
      "name": "RewardPeriodStarted",
      "type": "event"
    },
    {
      "anonymous": false,
      "inputs": [
        {
          "indexed": true,
          "internalType": "bytes32",
          "name": "role",
          "type": "bytes32"
        },
        {
          "indexed": true,
          "internalType": "bytes32",
          "name": "previousAdminRole",
          "type": "bytes32"
        },
        {
          "indexed": true,
          "internalType": "bytes32",
          "name": "newAdminRole",
          "type": "bytes32"
        }
      ],
      "name": "RoleAdminChanged",
      "type": "event"
    },
    {
      "anonymous": false,
      "inputs": [
        {
          "indexed": true,
          "internalType": "bytes32",
          "name": "role",
          "type": "bytes32"
        },
        {
          "indexed": true,
          "internalType": "address",
          "name": "account",
          "type": "address"
        },
        {
          "indexed": true,
          "internalType": "address",
          "name": "sender",
          "type": "address"
        }
      ],
      "name": "RoleGranted",
      "type": "event"
    },
    {
      "anonymous": false,
      "inputs": [
        {
          "indexed": true,
          "internalType": "bytes32",
          "name": "role",
          "type": "bytes32"
        },
        {
          "indexed": true,
          "internalType": "address",
          "name": "account",
          "type": "address"
        },
        {
          "indexed": true,
          "internalType": "address",
          "name": "sender",
          "type": "address"
        }
      ],
      "name": "RoleRevoked",
      "type": "event"
    },
    {
      "anonymous": false,
      "inputs": [
        {
          "indexed": true,
          "internalType": "address",
          "name": "user",
          "type": "address"
        },
        {
          "indexed": false,
          "internalType": "uint256",
          "name": "amount",
          "type": "uint256"
        }
      ],
      "name": "Staked",
      "type": "event"
    },
    {
      "anonymous": false,
      "inputs": [
        {
          "indexed": true,
          "internalType": "address",
          "name": "token",
          "type": "address"
        },
        {
          "indexed": false,
          "internalType": "uint256",
          "name": "amount",
          "type": "uint256"
        }
      ],
      "name": "TokensRecovered",
      "type": "event"
    },
    {
      "anonymous": false,
      "inputs": [
        {
          "indexed": false,
          "internalType": "address",
          "name": "account",
          "type": "address"
        }
      ],
      "name": "Unpaused",
      "type": "event"
    },
    {
      "anonymous": false,
      "inputs": [
        {
          "indexed": true,
          "internalType": "address",
          "name": "user",
          "type": "address"
        },
        {
          "indexed": false,
          "internalType": "uint256",
          "name": "amount",
          "type": "uint256"
        }
      ],
      "name": "Unstaked",
      "type": "event"
    },
    {
      "inputs": [],
      "name": "ADMIN_ROLE",
      "outputs": [
        {
          "internalType": "bytes32",
          "name": "",
          "type": "bytes32"
        }
      ],
      "stateMutability": "view",
      "type": "function"
    },
    {
      "inputs": [],
      "name": "DEFAULT_ADMIN_ROLE",
      "outputs": [
        {
          "internalType": "bytes32",
          "name": "",
          "type": "bytes32"
        }
      ],
      "stateMutability": "view",
      "type": "function"
    },
    {
      "inputs": [
        {
          "internalType": "address",
          "name": "",
          "type": "address"
        }
      ],
      "name": "balanceOf",
      "outputs": [
        {
          "internalType": "uint256",
          "name": "",
          "type": "uint256"
        }
      ],
      "stateMutability": "view",
      "type": "function"
    },
    {
      "inputs": [],
      "name": "claimReward",
      "outputs": [],
      "stateMutability": "nonpayable",
      "type": "function"
    },
    {
      "inputs": [
        {
          "internalType": "address",
          "name": "account",
          "type": "address"
        }
      ],
      "name": "earned",
      "outputs": [
        {
          "internalType": "uint256",
          "name": "",
          "type": "uint256"
        }
      ],
      "stateMutability": "view",
      "type": "function"
    },
    {
      "inputs": [],
      "name": "getContractBalance",
      "outputs": [
        {
          "internalType": "uint256",
          "name": "",
          "type": "uint256"
        }
      ],
      "stateMutability": "view",
      "type": "function"
    },
    {
      "inputs": [
        {
          "internalType": "bytes32",
          "name": "role",
          "type": "bytes32"
        }
      ],
      "name": "getRoleAdmin",
      "outputs": [
        {
          "internalType": "bytes32",
          "name": "",
          "type": "bytes32"
        }
      ],
      "stateMutability": "view",
      "type": "function"
    },
    {
      "inputs": [
        {
          "internalType": "bytes32",
          "name": "role",
          "type": "bytes32"
        },
        {
          "internalType": "address",
          "name": "account",
          "type": "address"
        }
      ],
      "name": "grantRole",
      "outputs": [],
      "stateMutability": "nonpayable",
      "type": "function"
    },
    {
      "inputs": [
        {
          "internalType": "bytes32",
          "name": "role",
          "type": "bytes32"
        },
        {
          "internalType": "address",
          "name": "account",
          "type": "address"
        }
      ],
      "name": "hasRole",
      "outputs": [
        {
          "internalType": "bool",
          "name": "",
          "type": "bool"
        }
      ],
      "stateMutability": "view",
      "type": "function"
    },
    {
      "inputs": [],
      "name": "lastTimeRewardApplicable",
      "outputs": [
        {
          "internalType": "uint256",
          "name": "",
          "type": "uint256"
        }
      ],
      "stateMutability": "view",
      "type": "function"
    },
    {
      "inputs": [],
      "name": "lastUpdateTime",
      "outputs": [
        {
          "internalType": "uint256",
          "name": "",
          "type": "uint256"
        }
      ],
      "stateMutability": "view",
      "type": "function"
    },
    {
      "inputs": [],
      "name": "pause",
      "outputs": [],
      "stateMutability": "nonpayable",
      "type": "function"
    },
    {
      "inputs": [],
      "name": "paused",
      "outputs": [
        {
          "internalType": "bool",
          "name": "",
          "type": "bool"
        }
      ],
      "stateMutability": "view",
      "type": "function"
    },
    {
      "inputs": [
        {
          "internalType": "address",
          "name": "",
          "type": "address"
        }
      ],
      "name": "pendingRewards",
      "outputs": [
        {
          "internalType": "uint256",
          "name": "",
          "type": "uint256"
        }
      ],
      "stateMutability": "view",
      "type": "function"
    },
    {
      "inputs": [],
      "name": "periodFinish",
      "outputs": [
        {
          "internalType": "uint256",
          "name": "",
          "type": "uint256"
        }
      ],
      "stateMutability": "view",
      "type": "function"
    },
    {
      "inputs": [
        {
          "internalType": "address",
          "name": "tokenAddress",
          "type": "address"
        },
        {
          "internalType": "uint256",
          "name": "amount",
          "type": "uint256"
        }
      ],
      "name": "recoverTokens",
      "outputs": [],
      "stateMutability": "nonpayable",
      "type": "function"
    },
    {
      "inputs": [
        {
          "internalType": "bytes32",
          "name": "role",
          "type": "bytes32"
        },
        {
          "internalType": "address",
          "name": "account",
          "type": "address"
        }
      ],
      "name": "renounceRole",
      "outputs": [],
      "stateMutability": "nonpayable",
      "type": "function"
    },
    {
      "inputs": [
        {
          "internalType": "bytes32",
          "name": "role",
          "type": "bytes32"
        },
        {
          "internalType": "address",
          "name": "account",
          "type": "address"
        }
      ],
      "name": "revokeRole",
      "outputs": [],
      "stateMutability": "nonpayable",
      "type": "function"
    },
    {
      "inputs": [],
      "name": "rewardPerToken",
      "outputs": [
        {
          "internalType": "uint256",
          "name": "",
          "type": "uint256"
        }
      ],
      "stateMutability": "view",
      "type": "function"
    },
    {
      "inputs": [],
      "name": "rewardPerTokenStored",
      "outputs": [
        {
          "internalType": "uint256",
          "name": "",
          "type": "uint256"
        }
      ],
      "stateMutability": "view",
      "type": "function"
    },
    {
      "inputs": [],
      "name": "rewardPeriod",
      "outputs": [
        {
          "internalType": "uint256",
          "name": "",
          "type": "uint256"
        }
      ],
      "stateMutability": "view",
      "type": "function"
    },
    {
      "inputs": [],
      "name": "rewardRate",
      "outputs": [
        {
          "internalType": "uint256",
          "name": "",
          "type": "uint256"
        }
      ],
      "stateMutability": "view",
      "type": "function"
    },
    {
      "inputs": [],
      "name": "rewardToken",
      "outputs": [
        {
          "internalType": "contract IERC20",
          "name": "",
          "type": "address"
        }
      ],
      "stateMutability": "view",
      "type": "function"
    },
    {
      "inputs": [
        {
          "internalType": "uint256",
          "name": "period",
          "type": "uint256"
        }
      ],
      "name": "setRewardPeriod",
      "outputs": [],
      "stateMutability": "nonpayable",
      "type": "function"
    },
    {
      "inputs": [
        {
          "internalType": "uint256",
          "name": "amount",
          "type": "uint256"
        }
      ],
      "name": "stake",
      "outputs": [],
      "stateMutability": "nonpayable",
      "type": "function"
    },
    {
      "inputs": [],
      "name": "stakingToken",
      "outputs": [
        {
          "internalType": "contract IERC20",
          "name": "",
          "type": "address"
        }
      ],
      "stateMutability": "view",
      "type": "function"
    },
    {
      "inputs": [
        {
          "internalType": "uint256",
          "name": "reward",
          "type": "uint256"
        }
      ],
      "name": "startRewardPeriod",
      "outputs": [],
      "stateMutability": "nonpayable",
      "type": "function"
    },
    {
      "inputs": [
        {
          "internalType": "bytes4",
          "name": "interfaceId",
          "type": "bytes4"
        }
      ],
      "name": "supportsInterface",
      "outputs": [
        {
          "internalType": "bool",
          "name": "",
          "type": "bool"
        }
      ],
      "stateMutability": "view",
      "type": "function"
    },
    {
      "inputs": [],
      "name": "totalClaimed",
      "outputs": [
        {
          "internalType": "uint256",
          "name": "",
          "type": "uint256"
        }
      ],
      "stateMutability": "view",
      "type": "function"
    },
    {
      "inputs": [],
      "name": "totalRewardForPeriod",
      "outputs": [
        {
          "internalType": "uint256",
          "name": "",
          "type": "uint256"
        }
      ],
      "stateMutability": "view",
      "type": "function"
    },
    {
      "inputs": [],
      "name": "totalSupply",
      "outputs": [
        {
          "internalType": "uint256",
          "name": "",
          "type": "uint256"
        }
      ],
      "stateMutability": "view",
      "type": "function"
    },
    {
      "inputs": [],
      "name": "unpause",
      "outputs": [],
      "stateMutability": "nonpayable",
      "type": "function"
    },
    {
      "inputs": [
        {
          "internalType": "uint256",
          "name": "amount",
          "type": "uint256"
        }
      ],
      "name": "unstake",
      "outputs": [],
      "stateMutability": "nonpayable",
      "type": "function"
    },
    {
      "inputs": [],
      "name": "unstakeAndClaim",
      "outputs": [],
      "stateMutability": "nonpayable",
      "type": "function"
    },
    {
      "inputs": [
        {
          "internalType": "address",
          "name": "",
          "type": "address"
        }
      ],
      "name": "userRewardPerTokenPaid",
      "outputs": [
        {
          "internalType": "uint256",
          "name": "",
          "type": "uint256"
        }
      ],
      "stateMutability": "view",
      "type": "function"
    }
  ],
  "bytecode": "0x60806040523480156200001157600080fd5b5060405162003bf038038062003bf08339818101604052810190620000379190620003de565b60016000819055506000600260006101000a81548160ff021916908315150217905550600073ffffffffffffffffffffffffffffffffffffffff168373ffffffffffffffffffffffffffffffffffffffff1603620000cc576040517f08c379a0000000000000000000000000000000000000000000000000000000008152600401620000c3906200049b565b60405180910390fd5b600073ffffffffffffffffffffffffffffffffffffffff168273ffffffffffffffffffffffffffffffffffffffff16036200013e576040517f08c379a000000000000000000000000000000000000000000000000000000000815260040162000135906200050d565b60405180910390fd5b82600260016101000a81548173ffffffffffffffffffffffffffffffffffffffff021916908373ffffffffffffffffffffffffffffffffffffffff16021790555081600360006101000a81548173ffffffffffffffffffffffffffffffffffffffff021916908373ffffffffffffffffffffffffffffffffffffffff160217905550620001d56000801b826200021060201b60201c565b620002077fa49807205ce4d355092ef5a8a18f56e8913cf4a201fbe287825b095693c21775826200021060201b60201c565b5050506200052f565b6200022282826200030160201b60201c565b620002fd57600180600084815260200190815260200160002060000160008373ffffffffffffffffffffffffffffffffffffffff1673ffffffffffffffffffffffffffffffffffffffff16815260200190815260200160002060006101000a81548160ff021916908315150217905550620002a26200036c60201b60201c565b73ffffffffffffffffffffffffffffffffffffffff168173ffffffffffffffffffffffffffffffffffffffff16837f2f8788117e7eff1d82e926ec794901d17c78024a50270940304540a733656f0d60405160405180910390a45b5050565b60006001600084815260200190815260200160002060000160008373ffffffffffffffffffffffffffffffffffffffff1673ffffffffffffffffffffffffffffffffffffffff16815260200190815260200160002060009054906101000a900460ff16905092915050565b600033905090565b600080fd5b600073ffffffffffffffffffffffffffffffffffffffff82169050919050565b6000620003a68262000379565b9050919050565b620003b88162000399565b8114620003c457600080fd5b50565b600081519050620003d881620003ad565b92915050565b600080600060608486031215620003fa57620003f962000374565b5b60006200040a86828701620003c7565b93505060206200041d86828701620003c7565b92505060406200043086828701620003c7565b9150509250925092565b600082825260208201905092915050565b7f496e76616c6964207374616b696e6720746f6b656e0000000000000000000000600082015250565b6000620004836015836200043a565b915062000490826200044b565b602082019050919050565b60006020820190508181036000830152620004b68162000474565b9050919050565b7f496e76616c69642072657761726420746f6b656e000000000000000000000000600082015250565b6000620004f56014836200043a565b91506200050282620004bd565b602082019050919050565b600060208201905081810360008301526200052881620004e6565b9050919050565b6136b1806200053f6000396000f3fe608060405234801561001057600080fd5b50600436106102105760003560e01c806375b238fc11610125578063c8f33c91116100ad578063df136d651161007c578063df136d65146105cb578063e88dc5b7146105e9578063ebe2b12b14610607578063f7c618c114610625578063f985021a1461064357610210565b8063c8f33c9114610555578063cd3daf9d14610573578063d547741f14610591578063d54ad2a1146105ad57610210565b80638b876347116100f45780638b876347146104b157806391d14854146104e1578063a217fddf14610511578063a694fc3a1461052f578063b88a802f1461054b57610210565b806375b238fc1461044d5780637b0a47ee1461046b57806380faa57d146104895780638456cb59146104a757610210565b806331d7a262116101a8578063592cce5611610177578063592cce56146103a75780635c975abb146103c35780636f9fb98a146103e157806370a08231146103ff57806372f702f31461042f57610210565b806331d7a2621461033357806336568abe146103635780633f4ba83a1461037f57806345cac6b31461038957610210565b8063248a9ca3116101e4578063248a9ca3146102af5780632819a630146102df5780632e17de78146102fb5780632f2ff15d1461031757610210565b80628cc2621461021557806301ffc9a714610245578063069c9fae1461027557806318160ddd14610291575b600080fd5b61022f600480360381019061022a91906126de565b61064d565b60405161023c9190612724565b60405180910390f35b61025f600480360381019061025a9190612797565b61074f565b60405161026c91906127df565b60405180910390f35b61028f600480360381019061028a9190612826565b6107c9565b005b610299610991565b6040516102a69190612724565b60405180910390f35b6102c960048036038101906102c4919061289c565b610997565b6040516102d691906128d8565b60405180910390f35b6102f960048036038101906102f491906128f3565b6109b7565b005b610315600480360381019061031091906128f3565b610aab565b005b610331600480360381019061032c9190612920565b610d72565b005b61034d600480360381019061034891906126de565b610d93565b60405161035a9190612724565b60405180910390f35b61037d60048036038101906103789190612920565b610dab565b005b610387610e2e565b005b610391610e63565b60405161039e9190612724565b60405180910390f35b6103c160048036038101906103bc91906128f3565b610e7a565b005b6103cb611110565b6040516103d891906127df565b60405180910390f35b6103e9611127565b6040516103f69190612724565b60405180910390f35b610419600480360381019061041491906126de565b6111ca565b6040516104269190612724565b60405180910390f35b6104376111e2565b60405161044491906129bf565b60405180910390f35b610455611208565b60405161046291906128d8565b60405180910390f35b61047361122c565b6040516104809190612724565b60405180910390f35b610491611232565b60405161049e9190612724565b60405180910390f35b6104af61124c565b005b6104cb60048036038101906104c691906126de565b611281565b6040516104d89190612724565b60405180910390f35b6104fb60048036038101906104f69190612920565b611299565b60405161050891906127df565b60405180910390f35b610519611304565b60405161052691906128d8565b60405180910390f35b610549600480360381019061054491906128f3565b61130b565b005b61055361155a565b005b61055d611799565b60405161056a9190612724565b60405180910390f35b61057b61179f565b6040516105889190612724565b60405180910390f35b6105ab60048036038101906105a69190612920565b611809565b005b6105b561182a565b6040516105c29190612724565b60405180910390f35b6105d3611830565b6040516105e09190612724565b60405180910390f35b6105f1611836565b6040516105fe9190612724565b60405180910390f35b61060f61183c565b60405161061c9190612724565b60405180910390f35b61062d611842565b60405161063a91906129bf565b60405180910390f35b61064b611868565b005b6000600d60008373ffffffffffffffffffffffffffffffffffffffff1673ffffffffffffffffffffffffffffffffffffffff16815260200190815260200160002054670de0b6b3a7640000600c60008573ffffffffffffffffffffffffffffffffffffffff1673ffffffffffffffffffffffffffffffffffffffff168152602001908152602001600020546106e061179f565b6106ea9190612a09565b600b60008673ffffffffffffffffffffffffffffffffffffffff1673ffffffffffffffffffffffffffffffffffffffff168152602001908152602001600020546107349190612a3d565b61073e9190612aae565b6107489190612adf565b9050919050565b60007f7965db0b000000000000000000000000000000000000000000000000000000007bffffffffffffffffffffffffffffffffffffffffffffffffffffffff1916827bffffffffffffffffffffffffffffffffffffffffffffffffffffffff191614806107c257506107c182611bef565b5b9050919050565b7fa49807205ce4d355092ef5a8a18f56e8913cf4a201fbe287825b095693c217756107f381611c59565b600260019054906101000a900473ffffffffffffffffffffffffffffffffffffffff1673ffffffffffffffffffffffffffffffffffffffff168373ffffffffffffffffffffffffffffffffffffffff1603610883576040517f08c379a000000000000000000000000000000000000000000000000000000000815260040161087a90612b70565b60405180910390fd5b600360009054906101000a900473ffffffffffffffffffffffffffffffffffffffff1673ffffffffffffffffffffffffffffffffffffffff168373ffffffffffffffffffffffffffffffffffffffff1603610913576040517f08c379a000000000000000000000000000000000000000000000000000000000815260040161090a90612bdc565b60405180910390fd5b61093e33838573ffffffffffffffffffffffffffffffffffffffff16611c6d9092919063ffffffff16565b8273ffffffffffffffffffffffffffffffffffffffff167f46d2e6e71fc567877b817ff3d940571f989d4ee4d40f2b70806d36e738feef6f836040516109849190612724565b60405180910390a2505050565b60095481565b600060016000838152602001908152602001600020600101549050919050565b7fa49807205ce4d355092ef5a8a18f56e8913cf4a201fbe287825b095693c217756109e181611c59565b600654421015610a26576040517f08c379a0000000000000000000000000000000000000000000000000000000008152600401610a1d90612c48565b60405180910390fd5b60008211610a69576040517f08c379a0000000000000000000000000000000000000000000000000000000008152600401610a6090612cb4565b60405180910390fd5b816005819055507fae2d3978d18d478ac18076b9b2d699349786b12f5ada304764ecc54720912a0682604051610a9f9190612724565b60405180910390a15050565b610ab3611cf3565b33610abc61179f565b600881905550610aca611232565b600781905550600073ffffffffffffffffffffffffffffffffffffffff168173ffffffffffffffffffffffffffffffffffffffff1614610b9757610b0d8161064d565b600d60008373ffffffffffffffffffffffffffffffffffffffff1673ffffffffffffffffffffffffffffffffffffffff16815260200190815260200160002081905550600854600c60008373ffffffffffffffffffffffffffffffffffffffff1673ffffffffffffffffffffffffffffffffffffffff168152602001908152602001600020819055505b60008211610bda576040517f08c379a0000000000000000000000000000000000000000000000000000000008152600401610bd190612d20565b60405180910390fd5b81600b60003373ffffffffffffffffffffffffffffffffffffffff1673ffffffffffffffffffffffffffffffffffffffff168152602001908152602001600020541015610c5c576040517f08c379a0000000000000000000000000000000000000000000000000000000008152600401610c5390612d8c565b60405180910390fd5b8160096000828254610c6e9190612a09565b9250508190555081600b60003373ffffffffffffffffffffffffffffffffffffffff1673ffffffffffffffffffffffffffffffffffffffff1681526020019081526020016000206000828254610cc49190612a09565b92505081905550610d183383600260019054906101000a900473ffffffffffffffffffffffffffffffffffffffff1673ffffffffffffffffffffffffffffffffffffffff16611c6d9092919063ffffffff16565b3373ffffffffffffffffffffffffffffffffffffffff167f0f5bb82176feb1b5e747e28471aa92156a04d9f3ab9f45f28e2d704232b93f7583604051610d5e9190612724565b60405180910390a250610d6f611d42565b50565b610d7b82610997565b610d8481611c59565b610d8e8383611d4c565b505050565b600d6020528060005260406000206000915090505481565b610db3611e2c565b73ffffffffffffffffffffffffffffffffffffffff168173ffffffffffffffffffffffffffffffffffffffff1614610e20576040517f08c379a0000000000000000000000000000000000000000000000000000000008152600401610e1790612e1e565b60405180910390fd5b610e2a8282611e34565b5050565b7fa49807205ce4d355092ef5a8a18f56e8913cf4a201fbe287825b095693c21775610e5881611c59565b610e60611f16565b50565b6000600554600454610e759190612a3d565b905090565b7fa49807205ce4d355092ef5a8a18f56e8913cf4a201fbe287825b095693c21775610ea481611c59565b6000610eae61179f565b600881905550610ebc611232565b600781905550600073ffffffffffffffffffffffffffffffffffffffff168173ffffffffffffffffffffffffffffffffffffffff1614610f8957610eff8161064d565b600d60008373ffffffffffffffffffffffffffffffffffffffff1673ffffffffffffffffffffffffffffffffffffffff16815260200190815260200160002081905550600854600c60008373ffffffffffffffffffffffffffffffffffffffff1673ffffffffffffffffffffffffffffffffffffffff168152602001908152602001600020819055505b600654421015610fce576040517f08c379a0000000000000000000000000000000000000000000000000000000008152600401610fc590612e8a565b60405180910390fd5b600060055411611013576040517f08c379a000000000000000000000000000000000000000000000000000000000815260040161100a90612ef6565b60405180910390fd5b60008311611056576040517f08c379a000000000000000000000000000000000000000000000000000000000815260040161104d90612f62565b60405180910390fd5b600554836110649190612aae565b600481905550426007819055506005544261107f9190612adf565b6006819055506110d4333085600360009054906101000a900473ffffffffffffffffffffffffffffffffffffffff1673ffffffffffffffffffffffffffffffffffffffff16611f79909392919063ffffffff16565b7f986dbf655b507fd78f1fec768961f56d96a66ad3069c4fb8667db83a45cb6350836040516111039190612724565b60405180910390a1505050565b6000600260009054906101000a900460ff16905090565b6000600360009054906101000a900473ffffffffffffffffffffffffffffffffffffffff1673ffffffffffffffffffffffffffffffffffffffff166370a08231306040518263ffffffff1660e01b81526004016111849190612f91565b602060405180830381865afa1580156111a1573d6000803e3d6000fd5b505050506040513d601f19601f820116820180604052508101906111c59190612fc1565b905090565b600b6020528060005260406000206000915090505481565b600260019054906101000a900473ffffffffffffffffffffffffffffffffffffffff1681565b7fa49807205ce4d355092ef5a8a18f56e8913cf4a201fbe287825b095693c2177581565b60045481565b6000600654421061124557600654611247565b425b905090565b7fa49807205ce4d355092ef5a8a18f56e8913cf4a201fbe287825b095693c2177561127681611c59565b61127e612002565b50565b600c6020528060005260406000206000915090505481565b60006001600084815260200190815260200160002060000160008373ffffffffffffffffffffffffffffffffffffffff1673ffffffffffffffffffffffffffffffffffffffff16815260200190815260200160002060009054906101000a900460ff16905092915050565b6000801b81565b611313611cf3565b61131b612065565b3361132461179f565b600881905550611332611232565b600781905550600073ffffffffffffffffffffffffffffffffffffffff168173ffffffffffffffffffffffffffffffffffffffff16146113ff576113758161064d565b600d60008373ffffffffffffffffffffffffffffffffffffffff1673ffffffffffffffffffffffffffffffffffffffff16815260200190815260200160002081905550600854600c60008373ffffffffffffffffffffffffffffffffffffffff1673ffffffffffffffffffffffffffffffffffffffff168152602001908152602001600020819055505b60008211611442576040517f08c379a000000000000000000000000000000000000000000000000000000000815260040161143990612d20565b60405180910390fd5b81600960008282546114549190612adf565b9250508190555081600b60003373ffffffffffffffffffffffffffffffffffffffff1673ffffffffffffffffffffffffffffffffffffffff16815260200190815260200160002060008282546114aa9190612adf565b92505081905550611500333084600260019054906101000a900473ffffffffffffffffffffffffffffffffffffffff1673ffffffffffffffffffffffffffffffffffffffff16611f79909392919063ffffffff16565b3373ffffffffffffffffffffffffffffffffffffffff167f9e71bc8eea02a63969f509818f2dafb9254532904319f9dbda79b67bd34a5f3d836040516115469190612724565b60405180910390a250611557611d42565b50565b611562611cf3565b3361156b61179f565b600881905550611579611232565b600781905550600073ffffffffffffffffffffffffffffffffffffffff168173ffffffffffffffffffffffffffffffffffffffff1614611646576115bc8161064d565b600d60008373ffffffffffffffffffffffffffffffffffffffff1673ffffffffffffffffffffffffffffffffffffffff16815260200190815260200160002081905550600854600c60008373ffffffffffffffffffffffffffffffffffffffff1673ffffffffffffffffffffffffffffffffffffffff168152602001908152602001600020819055505b6000600d60003373ffffffffffffffffffffffffffffffffffffffff1673ffffffffffffffffffffffffffffffffffffffff168152602001908152602001600020549050600081111561178d576000600d60003373ffffffffffffffffffffffffffffffffffffffff1673ffffffffffffffffffffffffffffffffffffffff168152602001908152602001600020819055506117253382600360009054906101000a900473ffffffffffffffffffffffffffffffffffffffff1673ffffffffffffffffffffffffffffffffffffffff16611c6d9092919063ffffffff16565b80600a60008282546117379190612adf565b925050819055503373ffffffffffffffffffffffffffffffffffffffff167f106f923f993c2149d49b4255ff723acafa1f2d94393f561d3eda32ae348f7241826040516117849190612724565b60405180910390a25b5050611797611d42565b565b60075481565b600080600954036117b4576008549050611806565b600954670de0b6b3a76400006004546007546117ce611232565b6117d89190612a09565b6117e29190612a3d565b6117ec9190612a3d565b6117f69190612aae565b6008546118039190612adf565b90505b90565b61181282610997565b61181b81611c59565b6118258383611e34565b505050565b600a5481565b60085481565b60055481565b60065481565b600360009054906101000a900473ffffffffffffffffffffffffffffffffffffffff1681565b611870611cf3565b3361187961179f565b600881905550611887611232565b600781905550600073ffffffffffffffffffffffffffffffffffffffff168173ffffffffffffffffffffffffffffffffffffffff1614611954576118ca8161064d565b600d60008373ffffffffffffffffffffffffffffffffffffffff1673ffffffffffffffffffffffffffffffffffffffff16815260200190815260200160002081905550600854600c60008373ffffffffffffffffffffffffffffffffffffffff1673ffffffffffffffffffffffffffffffffffffffff168152602001908152602001600020819055505b6000600b60003373ffffffffffffffffffffffffffffffffffffffff1673ffffffffffffffffffffffffffffffffffffffff1681526020019081526020016000205490506000600d60003373ffffffffffffffffffffffffffffffffffffffff1673ffffffffffffffffffffffffffffffffffffffff1681526020019081526020016000205490506000821115611adf5781600960008282546119f79190612a09565b925050819055506000600b60003373ffffffffffffffffffffffffffffffffffffffff1673ffffffffffffffffffffffffffffffffffffffff16815260200190815260200160002081905550611a903383600260019054906101000a900473ffffffffffffffffffffffffffffffffffffffff1673ffffffffffffffffffffffffffffffffffffffff16611c6d9092919063ffffffff16565b3373ffffffffffffffffffffffffffffffffffffffff167f0f5bb82176feb1b5e747e28471aa92156a04d9f3ab9f45f28e2d704232b93f7583604051611ad69190612724565b60405180910390a25b6000811115611be2576000600d60003373ffffffffffffffffffffffffffffffffffffffff1673ffffffffffffffffffffffffffffffffffffffff16815260200190815260200160002081905550611b7a3382600360009054906101000a900473ffffffffffffffffffffffffffffffffffffffff1673ffffffffffffffffffffffffffffffffffffffff16611c6d9092919063ffffffff16565b80600a6000828254611b8c9190612adf565b925050819055503373ffffffffffffffffffffffffffffffffffffffff167f106f923f993c2149d49b4255ff723acafa1f2d94393f561d3eda32ae348f724182604051611bd99190612724565b60405180910390a25b505050611bed611d42565b565b60007f01ffc9a7000000000000000000000000000000000000000000000000000000007bffffffffffffffffffffffffffffffffffffffffffffffffffffffff1916827bffffffffffffffffffffffffffffffffffffffffffffffffffffffff1916149050919050565b611c6a81611c65611e2c565b6120af565b50565b611cee8363a9059cbb60e01b8484604051602401611c8c929190612fee565b604051602081830303815290604052907bffffffffffffffffffffffffffffffffffffffffffffffffffffffff19166020820180517bffffffffffffffffffffffffffffffffffffffffffffffffffffffff8381831617835250505050612134565b505050565b600260005403611d38576040517f08c379a0000000000000000000000000000000000000000000000000000000008152600401611d2f90613063565b60405180910390fd5b6002600081905550565b6001600081905550565b611d568282611299565b611e2857600180600084815260200190815260200160002060000160008373ffffffffffffffffffffffffffffffffffffffff1673ffffffffffffffffffffffffffffffffffffffff16815260200190815260200160002060006101000a81548160ff021916908315150217905550611dcd611e2c565b73ffffffffffffffffffffffffffffffffffffffff168173ffffffffffffffffffffffffffffffffffffffff16837f2f8788117e7eff1d82e926ec794901d17c78024a50270940304540a733656f0d60405160405180910390a45b5050565b600033905090565b611e3e8282611299565b15611f125760006001600084815260200190815260200160002060000160008373ffffffffffffffffffffffffffffffffffffffff1673ffffffffffffffffffffffffffffffffffffffff16815260200190815260200160002060006101000a81548160ff021916908315150217905550611eb7611e2c565b73ffffffffffffffffffffffffffffffffffffffff168173ffffffffffffffffffffffffffffffffffffffff16837ff6391f5c32d9c69d2a47ea670b442974b53935d1edc7fd64eb21e047a839171b60405160405180910390a45b5050565b611f1e6121fc565b6000600260006101000a81548160ff0219169083151502179055507f5db9ee0a495bf2e6ff9c91a7834c1ba4fdd244a5e8aa4e537bd38aeae4b073aa611f62611e2c565b604051611f6f9190612f91565b60405180910390a1565b611ffc846323b872dd60e01b858585604051602401611f9a93929190613083565b604051602081830303815290604052907bffffffffffffffffffffffffffffffffffffffffffffffffffffffff19166020820180517bffffffffffffffffffffffffffffffffffffffffffffffffffffffff8381831617835250505050612134565b50505050565b61200a612065565b6001600260006101000a81548160ff0219169083151502179055507f62e78cea01bee320cd4e420270b5ea74000d11b0c9f74754ebdbfc544b05a25861204e611e2c565b60405161205b9190612f91565b60405180910390a1565b61206d611110565b156120ad576040517f08c379a00000000000000000000000000000000000000000000000000000000081526004016120a490613106565b60405180910390fd5b565b6120b98282611299565b612130576120c681612245565b6120d48360001c6020612272565b6040516020016120e592919061322f565b6040516020818303038152906040526040517f08c379a000000000000000000000000000000000000000000000000000000000815260040161212791906132b3565b60405180910390fd5b5050565b6000612196826040518060400160405280602081526020017f5361666545524332303a206c6f772d6c6576656c2063616c6c206661696c65648152508573ffffffffffffffffffffffffffffffffffffffff166124ae9092919063ffffffff16565b90506000815114806121b85750808060200190518101906121b79190613301565b5b6121f7576040517f08c379a00000000000000000000000000000000000000000000000000000000081526004016121ee906133a0565b60405180910390fd5b505050565b612204611110565b612243576040517f08c379a000000000000000000000000000000000000000000000000000000000815260040161223a9061340c565b60405180910390fd5b565b606061226b8273ffffffffffffffffffffffffffffffffffffffff16601460ff16612272565b9050919050565b6060600060028360026122859190612a3d565b61228f9190612adf565b67ffffffffffffffff8111156122a8576122a761342c565b5b6040519080825280601f01601f1916602001820160405280156122da5781602001600182028036833780820191505090505b5090507f3000000000000000000000000000000000000000000000000000000000000000816000815181106123125761231161345b565b5b60200101907effffffffffffffffffffffffffffffffffffffffffffffffffffffffffffff1916908160001a9053507f7800000000000000000000000000000000000000000000000000000000000000816001815181106123765761237561345b565b5b60200101907effffffffffffffffffffffffffffffffffffffffffffffffffffffffffffff1916908160001a905350600060018460026123b69190612a3d565b6123c09190612adf565b90505b6001811115612460577f3031323334353637383961626364656600000000000000000000000000000000600f8616601081106124025761240161345b565b5b1a60f81b8282815181106124195761241861345b565b5b60200101907effffffffffffffffffffffffffffffffffffffffffffffffffffffffffffff1916908160001a905350600485901c9450806124599061348a565b90506123c3565b50600084146124a4576040517f08c379a000000000000000000000000000000000000000000000000000000000815260040161249b906134ff565b60405180910390fd5b8091505092915050565b60606124bd84846000856124c6565b90509392505050565b60608247101561250b576040517f08c379a000000000000000000000000000000000000000000000000000000000815260040161250290613591565b60405180910390fd5b6000808673ffffffffffffffffffffffffffffffffffffffff16858760405161253491906135f8565b60006040518083038185875af1925050503d8060008114612571576040519150601f19603f3d011682016040523d82523d6000602084013e612576565b606091505b509150915061258787838387612593565b92505050949350505050565b606083156125f55760008351036125ed576125ad85612608565b6125ec576040517f08c379a00000000000000000000000000000000000000000000000000000000081526004016125e39061365b565b60405180910390fd5b5b829050612600565b6125ff838361262b565b5b949350505050565b6000808273ffffffffffffffffffffffffffffffffffffffff163b119050919050565b60008251111561263e5781518083602001fd5b806040517f08c379a000000000000000000000000000000000000000000000000000000000815260040161267291906132b3565b60405180910390fd5b600080fd5b600073ffffffffffffffffffffffffffffffffffffffff82169050919050565b60006126ab82612680565b9050919050565b6126bb816126a0565b81146126c657600080fd5b50565b6000813590506126d8816126b2565b92915050565b6000602082840312156126f4576126f361267b565b5b6000612702848285016126c9565b91505092915050565b6000819050919050565b61271e8161270b565b82525050565b60006020820190506127396000830184612715565b92915050565b60007fffffffff0000000000000000000000000000000000000000000000000000000082169050919050565b6127748161273f565b811461277f57600080fd5b50565b6000813590506127918161276b565b92915050565b6000602082840312156127ad576127ac61267b565b5b60006127bb84828501612782565b91505092915050565b60008115159050919050565b6127d9816127c4565b82525050565b60006020820190506127f460008301846127d0565b92915050565b6128038161270b565b811461280e57600080fd5b50565b600081359050612820816127fa565b92915050565b6000806040838503121561283d5761283c61267b565b5b600061284b858286016126c9565b925050602061285c85828601612811565b9150509250929050565b6000819050919050565b61287981612866565b811461288457600080fd5b50565b60008135905061289681612870565b92915050565b6000602082840312156128b2576128b161267b565b5b60006128c084828501612887565b91505092915050565b6128d281612866565b82525050565b60006020820190506128ed60008301846128c9565b92915050565b6000602082840312156129095761290861267b565b5b600061291784828501612811565b91505092915050565b600080604083850312156129375761293661267b565b5b600061294585828601612887565b9250506020612956858286016126c9565b9150509250929050565b6000819050919050565b600061298561298061297b84612680565b612960565b612680565b9050919050565b60006129978261296a565b9050919050565b60006129a98261298c565b9050919050565b6129b98161299e565b82525050565b60006020820190506129d460008301846129b0565b92915050565b7f4e487b7100000000000000000000000000000000000000000000000000000000600052601160045260246000fd5b6000612a148261270b565b9150612a1f8361270b565b9250828203905081811115612a3757612a366129da565b5b92915050565b6000612a488261270b565b9150612a538361270b565b9250828202612a618161270b565b91508282048414831517612a7857612a776129da565b5b5092915050565b7f4e487b7100000000000000000000000000000000000000000000000000000000600052601260045260246000fd5b6000612ab98261270b565b9150612ac48361270b565b925082612ad457612ad3612a7f565b5b828204905092915050565b6000612aea8261270b565b9150612af58361270b565b9250828201905080821115612b0d57612b0c6129da565b5b92915050565b600082825260208201905092915050565b7f43616e6e6f74207265636f766572207374616b696e6720746f6b656e00000000600082015250565b6000612b5a601c83612b13565b9150612b6582612b24565b602082019050919050565b60006020820190508181036000830152612b8981612b4d565b9050919050565b7f43616e6e6f74207265636f7665722072657761726420746f6b656e0000000000600082015250565b6000612bc6601b83612b13565b9150612bd182612b90565b602082019050919050565b60006020820190508181036000830152612bf581612bb9565b9050919050565b7f43757272656e7420706572696f64207374696c6c206163746976650000000000600082015250565b6000612c32601b83612b13565b9150612c3d82612bfc565b602082019050919050565b60006020820190508181036000830152612c6181612c25565b9050919050565b7f506572696f64206d7573742062652067726561746572207468616e2030000000600082015250565b6000612c9e601d83612b13565b9150612ca982612c68565b602082019050919050565b60006020820190508181036000830152612ccd81612c91565b9050919050565b7f416d6f756e74206d7573742062652067726561746572207468616e2030000000600082015250565b6000612d0a601d83612b13565b9150612d1582612cd4565b602082019050919050565b60006020820190508181036000830152612d3981612cfd565b9050919050565b7f496e73756666696369656e74207374616b65642062616c616e63650000000000600082015250565b6000612d76601b83612b13565b9150612d8182612d40565b602082019050919050565b60006020820190508181036000830152612da581612d69565b9050919050565b7f416363657373436f6e74726f6c3a2063616e206f6e6c792072656e6f756e636560008201527f20726f6c657320666f722073656c660000000000000000000000000000000000602082015250565b6000612e08602f83612b13565b9150612e1382612dac565b604082019050919050565b60006020820190508181036000830152612e3781612dfb565b9050919050565b7f50726576696f757320706572696f64206e6f742066696e697368656400000000600082015250565b6000612e74601c83612b13565b9150612e7f82612e3e565b602082019050919050565b60006020820190508181036000830152612ea381612e67565b9050919050565b7f52657761726420706572696f64206e6f74207365740000000000000000000000600082015250565b6000612ee0601583612b13565b9150612eeb82612eaa565b602082019050919050565b60006020820190508181036000830152612f0f81612ed3565b9050919050565b7f526577617264206d7573742062652067726561746572207468616e2030000000600082015250565b6000612f4c601d83612b13565b9150612f5782612f16565b602082019050919050565b60006020820190508181036000830152612f7b81612f3f565b9050919050565b612f8b816126a0565b82525050565b6000602082019050612fa66000830184612f82565b92915050565b600081519050612fbb816127fa565b92915050565b600060208284031215612fd757612fd661267b565b5b6000612fe584828501612fac565b91505092915050565b60006040820190506130036000830185612f82565b6130106020830184612715565b9392505050565b7f5265656e7472616e637947756172643a207265656e7472616e742063616c6c00600082015250565b600061304d601f83612b13565b915061305882613017565b602082019050919050565b6000602082019050818103600083015261307c81613040565b9050919050565b60006060820190506130986000830186612f82565b6130a56020830185612f82565b6130b26040830184612715565b949350505050565b7f5061757361626c653a2070617573656400000000000000000000000000000000600082015250565b60006130f0601083612b13565b91506130fb826130ba565b602082019050919050565b6000602082019050818103600083015261311f816130e3565b9050919050565b600081905092915050565b7f416363657373436f6e74726f6c3a206163636f756e7420000000000000000000600082015250565b6000613167601783613126565b915061317282613131565b601782019050919050565b600081519050919050565b60005b838110156131a657808201518184015260208101905061318b565b60008484015250505050565b60006131bd8261317d565b6131c78185613126565b93506131d7818560208601613188565b80840191505092915050565b7f206973206d697373696e6720726f6c6520000000000000000000000000000000600082015250565b6000613219601183613126565b9150613224826131e3565b601182019050919050565b600061323a8261315a565b915061324682856131b2565b91506132518261320c565b915061325d82846131b2565b91508190509392505050565b6000601f19601f8301169050919050565b60006132858261317d565b61328f8185612b13565b935061329f818560208601613188565b6132a881613269565b840191505092915050565b600060208201905081810360008301526132cd818461327a565b905092915050565b6132de816127c4565b81146132e957600080fd5b50565b6000815190506132fb816132d5565b92915050565b6000602082840312156133175761331661267b565b5b6000613325848285016132ec565b91505092915050565b7f5361666545524332303a204552433230206f7065726174696f6e20646964206e60008201527f6f74207375636365656400000000000000000000000000000000000000000000602082015250565b600061338a602a83612b13565b91506133958261332e565b604082019050919050565b600060208201905081810360008301526133b98161337d565b9050919050565b7f5061757361626c653a206e6f7420706175736564000000000000000000000000600082015250565b60006133f6601483612b13565b9150613401826133c0565b602082019050919050565b60006020820190508181036000830152613425816133e9565b9050919050565b7f4e487b7100000000000000000000000000000000000000000000000000000000600052604160045260246000fd5b7f4e487b7100000000000000000000000000000000000000000000000000000000600052603260045260246000fd5b60006134958261270b565b9150600082036134a8576134a76129da565b5b600182039050919050565b7f537472696e67733a20686578206c656e67746820696e73756666696369656e74600082015250565b60006134e9602083612b13565b91506134f4826134b3565b602082019050919050565b60006020820190508181036000830152613518816134dc565b9050919050565b7f416464726573733a20696e73756666696369656e742062616c616e636520666f60008201527f722063616c6c0000000000000000000000000000000000000000000000000000602082015250565b600061357b602683612b13565b91506135868261351f565b604082019050919050565b600060208201905081810360008301526135aa8161356e565b9050919050565b600081519050919050565b600081905092915050565b60006135d2826135b1565b6135dc81856135bc565b93506135ec818560208601613188565b80840191505092915050565b600061360482846135c7565b915081905092915050565b7f416464726573733a2063616c6c20746f206e6f6e2d636f6e7472616374000000600082015250565b6000613645601d83612b13565b91506136508261360f565b602082019050919050565b6000602082019050818103600083015261367481613638565b905091905056fea2646970667358221220e843bfa2c9863ce59ad39b2d4f6dada0cadc48e6dca42f12c39d737666ab739f64736f6c63430008130033",
  "linkReferences": {},
  "deployedLinkReferences": {}
}